8=FIX.4.4|9=113|35=A|34=1|49=MyClient1|52=20191024-09:33:12.006|56=MyAcceptorService|98=0|108=10|553=client1234|554=stardust1234|10=134|
8=FIX.4.4|9=113|35=A|34=2|49=MyClient1|52=20191024-09:33:16.915|56=MyAcceptorService|98=0|108=10|553=client1234|554=stardust1234|10=148|
8=FIX.4.4|9=113|35=A|34=3|49=MyClient1|52=20191024-09:33:21.914|56=MyAcceptorService|98=0|108=10|553=client1234|554=stardust1234|10=144|
8=FIX.4.4|9=113|35=A|34=4|49=MyClient1|52=20191024-09:33:26.914|56=MyAcceptorService|98=0|108=10|553=client1234|554=stardust1234|10=150|
8=FIX.4.4|9=113|35=A|34=5|49=MyClient1|52=20191024-09:33:31.915|56=MyAcceptorService|98=0|108=10|553=client1234|554=stardust1234|10=148|
8=FIX.4.4|9=113|35=A|34=6|49=MyClient1|52=20191024-09:33:36.914|56=MyAcceptorService|98=0|108=10|553=client1234|554=stardust1234|10=153|
8=FIX.4.4|9=113|35=A|34=7|49=MyClient1|52=20191024-09:33:41.913|56=MyAcceptorService|98=0|108=10|553=client1234|554=stardust1234|10=149|
8=FIX.4.4|9=113|35=A|34=8|49=MyClient1|52=20191024-09:33:46.914|56=MyAcceptorService|98=0|108=10|553=client1234|554=stardust1234|10=156|
8=FIX.4.4|9=113|35=A|34=9|49=MyClient1|52=20191024-09:33:51.931|56=MyAcceptorService|98=0|108=10|553=client1234|554=stardust1234|10=152|
8=FIX.4.4|9=114|35=A|34=10|49=MyClient1|52=20191024-09:33:56.913|56=MyAcceptorService|98=0|108=10|553=client1234|554=stardust1234|10=198|
8=FIX.4.4|9=114|35=A|34=11|49=MyClient1|52=20191024-09:34:01.914|56=MyAcceptorService|98=0|108=10|553=client1234|554=stardust1234|10=191|
8=FIX.4.4|9=114|35=A|34=12|49=MyClient1|52=20191024-09:34:06.913|56=MyAcceptorService|98=0|108=10|553=client1234|554=stardust1234|10=196|
8=FIX.4.4|9=114|35=A|34=13|49=MyClient1|52=20191024-09:34:11.915|56=MyAcceptorService|98=0|108=10|553=client1234|554=stardust1234|10=195|
8=FIX.4.4|9=114|35=A|34=14|49=MyClient1|52=20191024-09:34:16.913|56=MyAcceptorService|98=0|108=10|553=client1234|554=stardust1234|10=199|
8=FIX.4.4|9=114|35=A|34=15|49=MyClient1|52=20191024-09:35:32.940|56=MyAcceptorService|98=0|108=10|553=client1234|554=stardust1234|10=199|
8=FIX.4.4|9=114|35=A|34=16|49=MyClient1|52=20191024-09:35:37.916|56=MyAcceptorService|98=0|108=10|553=client1234|554=stardust1234|10=208|
8=FIX.4.4|9=114|35=A|34=17|49=MyClient1|52=20191024-09:35:42.916|56=MyAcceptorService|98=0|108=10|553=client1234|554=stardust1234|10=205|
8=FIX.4.4|9=114|35=A|34=18|49=MyClient1|52=20191024-09:35:48.915|56=MyAcceptorService|98=0|108=10|553=client1234|554=stardust1234|10=211|
8=FIX.4.4|9=114|35=A|34=19|49=MyClient1|52=20191024-09:35:53.920|56=MyAcceptorService|98=0|108=10|553=client1234|554=stardust1234|10=204|
8=FIX.4.4|9=114|35=A|34=20|49=MyClient1|52=20191024-09:35:58.916|56=MyAcceptorService|98=0|108=10|553=client1234|554=stardust1234|10=206|
8=FIX.4.4|9=114|35=A|34=21|49=MyClient1|52=20191024-09:36:03.916|56=MyAcceptorService|98=0|108=10|553=client1234|554=stardust1234|10=198|
8=FIX.4.4|9=114|35=A|34=22|49=MyClient1|52=20191024-09:36:22.858|56=MyAcceptorService|98=0|108=10|553=client1234|554=stardust1234|10=205|
8=FIX.4.4|9=114|35=A|34=23|49=MyClient1|52=20191024-09:36:27.780|56=MyAcceptorService|98=0|108=10|553=client1234|554=stardust1234|10=205|
8=FIX.4.4|9=114|35=A|34=24|49=MyClient1|52=20191024-09:36:32.785|56=MyAcceptorService|98=0|108=10|553=client1234|554=stardust1234|10=207|
8=FIX.4.4|9=114|35=A|34=25|49=MyClient1|52=20191024-09:36:37.781|56=MyAcceptorService|98=0|108=10|553=client1234|554=stardust1234|10=209|
8=FIX.4.4|9=114|35=A|34=26|49=MyClient1|52=20191024-09:36:42.781|56=MyAcceptorService|98=0|108=10|553=client1234|554=stardust1234|10=206|
8=FIX.4.4|9=114|35=A|34=27|49=MyClient1|52=20191024-09:36:47.781|56=MyAcceptorService|98=0|108=10|553=client1234|554=stardust1234|10=212|
8=FIX.4.4|9=114|35=A|34=28|49=MyClient1|52=20191024-09:36:52.781|56=MyAcceptorService|98=0|108=10|553=client1234|554=stardust1234|10=209|
8=FIX.4.4|9=114|35=A|34=29|49=MyClient1|52=20191024-09:36:57.781|56=MyAcceptorService|98=0|108=10|553=client1234|554=stardust1234|10=215|
8=FIX.4.4|9=114|35=A|34=30|49=MyClient1|52=20191024-09:37:02.782|56=MyAcceptorService|98=0|108=10|553=client1234|554=stardust1234|10=199|
8=FIX.4.4|9=114|35=A|34=31|49=MyClient1|52=20191024-09:37:07.781|56=MyAcceptorService|98=0|108=10|553=client1234|554=stardust1234|10=204|
8=FIX.4.4|9=114|35=A|34=32|49=MyClient1|52=20191024-09:37:12.780|56=MyAcceptorService|98=0|108=10|553=client1234|554=stardust1234|10=200|
8=FIX.4.4|9=114|35=A|34=33|49=MyClient1|52=20191024-09:37:17.780|56=MyAcceptorService|98=0|108=10|553=client1234|554=stardust1234|10=206|
8=FIX.4.4|9=114|35=A|34=34|49=MyClient1|52=20191024-09:37:22.781|56=MyAcceptorService|98=0|108=10|553=client1234|554=stardust1234|10=204|
8=FIX.4.4|9=114|35=A|34=35|49=MyClient1|52=20191024-09:37:27.780|56=MyAcceptorService|98=0|108=10|553=client1234|554=stardust1234|10=209|
8=FIX.4.4|9=114|35=A|34=36|49=MyClient1|52=20191024-09:37:32.780|56=MyAcceptorService|98=0|108=10|553=client1234|554=stardust1234|10=206|
8=FIX.4.4|9=114|35=A|34=37|49=MyClient1|52=20191024-09:37:37.781|56=MyAcceptorService|98=0|108=10|553=client1234|554=stardust1234|10=213|
8=FIX.4.4|9=114|35=A|34=38|49=MyClient1|52=20191024-09:37:42.782|56=MyAcceptorService|98=0|108=10|553=client1234|554=stardust1234|10=211|
8=FIX.4.4|9=114|35=A|34=39|49=MyClient1|52=20191024-09:37:47.782|56=MyAcceptorService|98=0|108=10|553=client1234|554=stardust1234|10=217|
8=FIX.4.4|9=114|35=A|34=40|49=MyClient1|52=20191024-09:37:53.781|56=MyAcceptorService|98=0|108=10|553=client1234|554=stardust1234|10=205|
8=FIX.4.4|9=114|35=A|34=41|49=MyClient1|52=20191024-09:37:58.781|56=MyAcceptorService|98=0|108=10|553=client1234|554=stardust1234|10=211|
8=FIX.4.4|9=114|35=A|34=42|49=MyClient1|52=20191024-09:38:03.783|56=MyAcceptorService|98=0|108=10|553=client1234|554=stardust1234|10=205|
8=FIX.4.4|9=114|35=A|34=43|49=MyClient1|52=20191024-09:38:08.781|56=MyAcceptorService|98=0|108=10|553=client1234|554=stardust1234|10=209|
8=FIX.4.4|9=114|35=A|34=44|49=MyClient1|52=20191024-09:38:13.781|56=MyAcceptorService|98=0|108=10|553=client1234|554=stardust1234|10=206|
8=FIX.4.4|9=114|35=A|34=45|49=MyClient1|52=20191024-09:38:18.781|56=MyAcceptorService|98=0|108=10|553=client1234|554=stardust1234|10=212|
8=FIX.4.4|9=114|35=A|34=46|49=MyClient1|52=20191024-09:38:23.782|56=MyAcceptorService|98=0|108=10|553=client1234|554=stardust1234|10=210|
8=FIX.4.4|9=114|35=A|34=47|49=MyClient1|52=20191024-09:38:28.781|56=MyAcceptorService|98=0|108=10|553=client1234|554=stardust1234|10=215|
8=FIX.4.4|9=114|35=A|34=48|49=MyClient1|52=20191024-09:40:08.497|56=MyAcceptorService|98=0|108=10|553=client1234|554=stardust1234|10=211|
8=FIX.4.4|9=81|35=A|34=1|49=MyAcceptorService|52=20191024-09:40:08.783|56=MyClient1|98=0|108=10|10=037|
8=FIX.4.4|9=78|35=2|34=2|49=MyAcceptorService|52=20191024-09:40:08.814|56=MyClient1|7=1|16=0|10=124|
8=FIX.4.4|9=112|35=4|34=1|43=Y|49=MyClient1|52=20191024-09:40:08.850|56=MyAcceptorService|122=20191024-09:40:08.830|36=49|123=Y|10=107|
8=FIX.4.4|9=69|35=0|34=3|49=MyAcceptorService|52=20191024-09:40:19.117|56=MyClient1|10=254|
8=FIX.4.4|9=70|35=0|34=49|49=MyClient1|52=20191024-09:40:19.120|56=MyAcceptorService|10=042|
8=FIX.4.4|9=69|35=0|34=4|49=MyAcceptorService|52=20191024-09:40:29.116|56=MyClient1|10=255|
8=FIX.4.4|9=70|35=0|34=50|49=MyClient1|52=20191024-09:40:29.119|56=MyAcceptorService|10=043|
8=FIX.4.4|9=114|35=A|34=51|49=MyClient1|52=20191024-09:43:01.215|56=MyAcceptorService|98=0|108=10|553=client1234|554=stardust1234|10=189|
8=FIX.4.4|9=81|35=A|34=5|49=MyAcceptorService|52=20191024-09:43:01.429|56=MyClient1|98=0|108=10|10=034|
8=FIX.4.4|9=70|35=0|34=52|49=MyClient1|52=20191024-09:43:11.449|56=MyAcceptorService|10=045|
8=FIX.4.4|9=69|35=0|34=6|49=MyAcceptorService|52=20191024-09:43:11.453|56=MyClient1|10=255|
8=FIX.4.4|9=70|35=0|34=53|49=MyClient1|52=20191024-09:43:21.450|56=MyAcceptorService|10=039|
8=FIX.4.4|9=69|35=0|34=7|49=MyAcceptorService|52=20191024-09:43:21.452|56=MyClient1|10=000|
8=FIX.4.4|9=70|35=0|34=54|49=MyClient1|52=20191024-09:43:31.449|56=MyAcceptorService|10=049|
8=FIX.4.4|9=69|35=0|34=8|49=MyAcceptorService|52=20191024-09:43:31.451|56=MyClient1|10=001|
8=FIX.4.4|9=70|35=5|34=55|49=MyClient1|52=20191024-09:43:36.452|56=MyAcceptorService|10=054|
8=FIX.4.4|9=69|35=5|34=9|49=MyAcceptorService|52=20191024-09:43:36.455|56=MyClient1|10=016|
8=FIX.4.4|9=115|35=A|34=56|49=MyClient1|52=20191024-09:43:59.703|56=MyAcceptorService|98=0|108=10|553=client1234|554=stardust12345|10=007|
8=FIX.4.4|9=106|35=5|34=10|49=MyAcceptorService|52=20191024-09:43:59.802|56=MyClient1|58=Invalid username/password|1409=5|10=054|
8=FIX.4.4|9=115|35=A|34=58|49=MyClient1|52=20191024-09:44:04.666|56=MyAcceptorService|98=0|108=10|553=client1234|554=stardust12345|10=008|
8=FIX.4.4|9=106|35=5|34=11|49=MyAcceptorService|52=20191024-09:44:04.671|56=MyClient1|58=Invalid username/password|1409=5|10=050|
8=FIX.4.4|9=115|35=A|34=60|49=MyClient1|52=20191024-09:44:09.666|56=MyAcceptorService|98=0|108=10|553=client1234|554=stardust12345|10=006|
8=FIX.4.4|9=106|35=5|34=12|49=MyAcceptorService|52=20191024-09:44:09.671|56=MyClient1|58=Invalid username/password|1409=5|10=056|
8=FIX.4.4|9=115|35=A|34=62|49=MyClient1|52=20191024-09:44:14.666|56=MyAcceptorService|98=0|108=10|553=client1234|554=stardust12345|10=004|
8=FIX.4.4|9=106|35=5|34=13|49=MyAcceptorService|52=20191024-09:44:14.670|56=MyClient1|58=Invalid username/password|1409=5|10=052|
8=FIX.4.4|9=115|35=A|34=64|49=MyClient1|52=20191024-09:44:19.668|56=MyAcceptorService|98=0|108=10|553=client1234|554=stardust12345|10=013|
8=FIX.4.4|9=106|35=5|34=14|49=MyAcceptorService|52=20191024-09:44:19.673|56=MyClient1|58=Invalid username/password|1409=5|10=061|
8=FIX.4.4|9=115|35=A|34=66|49=MyClient1|52=20191024-09:44:24.666|56=MyAcceptorService|98=0|108=10|553=client1234|554=stardust12345|10=009|
8=FIX.4.4|9=106|35=5|34=15|49=MyAcceptorService|52=20191024-09:44:24.670|56=MyClient1|58=Invalid username/password|1409=5|10=055|
8=FIX.4.4|9=115|35=A|34=68|49=MyClient1|52=20191024-09:44:29.666|56=MyAcceptorService|98=0|108=10|553=client1234|554=stardust12345|10=016|
8=FIX.4.4|9=106|35=5|34=16|49=MyAcceptorService|52=20191024-09:44:29.669|56=MyClient1|58=Invalid username/password|1409=5|10=069|
8=FIX.4.4|9=115|35=A|34=70|49=MyClient1|52=20191024-09:44:34.666|56=MyAcceptorService|98=0|108=10|553=client1234|554=stardust12345|10=005|
8=FIX.4.4|9=106|35=5|34=17|49=MyAcceptorService|52=20191024-09:44:34.670|56=MyClient1|58=Invalid username/password|1409=5|10=058|
8=FIX.4.4|9=115|35=A|34=72|49=MyClient1|52=20191024-09:44:39.668|56=MyAcceptorService|98=0|108=10|553=client1234|554=stardust12345|10=014|
8=FIX.4.4|9=106|35=5|34=18|49=MyAcceptorService|52=20191024-09:44:39.673|56=MyClient1|58=Invalid username/password|1409=5|10=067|
8=FIX.4.4|9=115|35=A|34=74|49=MyClient1|52=20191024-09:44:44.668|56=MyAcceptorService|98=0|108=10|553=client1234|554=stardust12345|10=012|
8=FIX.4.4|9=106|35=5|34=19|49=MyAcceptorService|52=20191024-09:44:44.673|56=MyClient1|58=Invalid username/password|1409=5|10=064|
8=FIX.4.4|9=115|35=A|34=76|49=MyClient1|52=20191024-09:44:49.669|56=MyAcceptorService|98=0|108=10|553=client1234|554=stardust12345|10=020|
8=FIX.4.4|9=106|35=5|34=20|49=MyAcceptorService|52=20191024-09:44:49.674|56=MyClient1|58=Invalid username/password|1409=5|10=062|
8=FIX.4.4|9=115|35=A|34=78|49=MyClient1|52=20191024-09:44:54.668|56=MyAcceptorService|98=0|108=10|553=client1234|554=stardust12345|10=017|
8=FIX.4.4|9=106|35=5|34=21|49=MyAcceptorService|52=20191024-09:44:54.674|56=MyClient1|58=Invalid username/password|1409=5|10=059|
