8=FIX.4.4|9=126|35=A|34=2|49=MyClient1|52=20191016-08:00:43.917|56=MyAcceptorService|98=0|108=30|141=N|553=MyUserName|554=MyPassword|1408=1.0|10=196|
8=FIX.4.4|9=144|35=5|34=5|49=MyAcceptorService|52=20191016-08:00:44.030|56=MyClient1|58=Invalid Logon message: Tag not defined for this message type, field=554|10=224|
8=FIX.4.4|9=80|35=A|34=3|49=MyClient1|52=20191016-08:00:49.850|56=MyAcceptorService|98=0|108=5|10=246|
8=FIX.4.4|9=80|35=A|34=7|49=MyAcceptorService|52=20191016-08:00:49.854|56=MyClient1|98=0|108=5|10=254|
8=FIX.4.4|9=78|35=2|34=8|49=MyAcceptorService|52=20191016-08:00:49.856|56=MyClient1|7=2|16=0|10=138|
8=FIX.4.4|9=78|35=2|34=4|49=MyClient1|52=20191016-08:00:49.858|56=MyAcceptorService|7=1|16=0|10=135|
8=FIX.4.4|9=808|35=AE|34=1|43=Y|49=MyAcceptorService|52=20191016-08:00:49.867|56=MyClient1|122=20191016-07:53:48.208|15=USD|19=ExecRefID_1|31=1205.9|32=1000000|55=USD/KRW|60=20190820-10:07:29.129|63=M1|64=20190923|75=20190820|120=USD|150=F|167=FXNDF|460=4|541=20190919|570=N|571=FF02-10E9-0000-05-1CA000|1003=FF02-10E9-0000-05|1056=1205900000|1300=OC|1301=FXODM|1903=FF02-10E9-0000-05|1904=0|1905=Y1KZLBMHGM|1906=0|1907=1|5899=20190822|552=2|54=2|37=0D2E-3A39-0001|198=MySecondaryOrderID_1|11=MyClOrdID_1|453=4|448=7PC4|447=D|452=1|802=1|523=LC02|803=1000|448=PK1|447=D|452=12|448=NEX_EBS|447=D|452=16|448=INS2|447=D|452=1001|1=7PC4|578=Manual|1057=Y|54=1|198=MySecondaryOrderID_1|11=MyClOrdID_1|453=3|448=LC9N|447=D|452=90|802=1|523=LC9NLC9N|803=16|448=549300BZQ6CXNOPQ8E95|447=N|452=90|448=LC9N|447=D|452=79|1=LC9N|1057=N|10=097|
8=FIX.4.4|9=808|35=AE|34=2|43=Y|49=MyAcceptorService|52=20191016-08:00:49.868|56=MyClient1|122=20191016-08:00:16.124|15=USD|19=ExecRefID_1|31=1205.9|32=1000000|55=USD/KRW|60=20190820-10:07:29.129|63=M1|64=20190923|75=20190820|120=USD|150=F|167=FXNDF|460=4|541=20190919|570=N|571=FF02-10E9-0000-05-1CA000|1003=FF02-10E9-0000-05|1056=1205900000|1300=OC|1301=FXODM|1903=FF02-10E9-0000-05|1904=0|1905=Y1KZLBMHGM|1906=0|1907=1|5899=20190822|552=2|54=2|37=0D2E-3A39-0001|198=MySecondaryOrderID_1|11=MyClOrdID_1|453=4|448=7PC4|447=D|452=1|802=1|523=LC02|803=1000|448=PK1|447=D|452=12|448=NEX_EBS|447=D|452=16|448=INS2|447=D|452=1001|1=7PC4|578=Manual|1057=Y|54=1|198=MySecondaryOrderID_1|11=MyClOrdID_1|453=3|448=LC9N|447=D|452=90|802=1|523=LC9NLC9N|803=16|448=549300BZQ6CXNOPQ8E95|447=N|452=90|448=LC9N|447=D|452=79|1=LC9N|1057=N|10=084|
8=FIX.4.4|9=808|35=AE|34=3|43=Y|49=MyAcceptorService|52=20191016-08:00:49.870|56=MyClient1|122=20191016-08:00:26.232|15=USD|19=ExecRefID_2|31=1205.9|32=1000000|55=USD/KRW|60=20190820-10:07:29.129|63=M1|64=20190923|75=20190820|120=USD|150=F|167=FXNDF|460=4|541=20190919|570=N|571=FF02-10E9-0000-05-1CA000|1003=FF02-10E9-0000-05|1056=1205900000|1300=OC|1301=FXODM|1903=FF02-10E9-0000-05|1904=0|1905=Y1KZLBMHGM|1906=0|1907=1|5899=20190822|552=2|54=2|37=0D2E-3A39-0001|198=MySecondaryOrderID_2|11=MyClOrdID_2|453=4|448=7PC4|447=D|452=1|802=1|523=LC02|803=1000|448=PK1|447=D|452=12|448=NEX_EBS|447=D|452=16|448=INS2|447=D|452=1001|1=7PC4|578=Manual|1057=Y|54=1|198=MySecondaryOrderID_2|11=MyClOrdID_2|453=3|448=LC9N|447=D|452=90|802=1|523=LC9NLC9N|803=16|448=549300BZQ6CXNOPQ8E95|447=N|452=90|448=LC9N|447=D|452=79|1=LC9N|1057=N|10=084|
8=FIX.4.4|9=826|35=AE|34=4|43=Y|49=MyAcceptorService|52=20191016-08:00:49.874|56=MyClient1|122=20191016-08:00:36.272|15=USD|19=ExecRefID_3|31=1205.9|32=1000000|55=USD/KRW|60=20190820-10:07:29.129|63=M1|64=20190923|75=20190820|120=USD|150=F|167=FXNDF|460=4|541=20190919|570=N|571=FF02-10E9-0000-05-100000|1003=FF02-10E9-0000-05|1056=1205900000|1300=OC|1301=FXODM|1903=FF02-10E9-0000-05|1904=0|1905=Y1KZLBMHGM|1906=0|1907=1|5899=20190822|552=2|54=2|37=0D2E-3A39-0001|198=MySecondaryOrderID_3|11=MyClOrdID_3|453=5|448=LC02|447=D|452=1|448=PK1|447=D|452=12|448=NEX_EBS|447=D|452=16|448=7PBA|447=D|452=79|448=INS9|447=D|452=1001|1=7PBA|578=Manual|1057=Y|54=1|198=MySecondaryOrderID_3|11=MyClOrdID_3|453=4|448=UATS|447=D|452=90|802=1|523=UATS0930|803=16|448=851WYGNLUQLFZBSYGB56|447=N|452=90|448=UATS|447=D|452=1|448=PK1|447=D|452=12|1=UATS|1057=N|10=206|
8=FIX.4.4|9=111|35=4|34=5|43=Y|49=MyAcceptorService|52=20191016-08:00:49.883|56=MyClient1|122=20191016-08:00:49.882|36=6|123=Y|10=070|
8=FIX.4.4|9=780|35=AE|34=6|43=Y|49=MyAcceptorService|52=20191016-08:00:49.877|56=MyClient1|122=20191016-08:00:46.301|15=USD|19=ExecRefID_4|31=1205.9|32=1000000|55=USD/KRW|60=20190820-10:07:29.129|63=M1|64=20190923|75=20190820|120=USD|150=F|167=FXNDF|460=4|541=20190919|570=N|571=FF02-10E9-0000-05-1BC000|829=40|1003=FF02-10E9-0000-05|1056=1205900000|1300=OC|1301=FXODM|1903=FF02-10E9-0000-05|1904=0|1905=Y1KZLBMHGM|1906=0|1907=1|5899=20190822|552=2|54=1|37=0D2E-3A39-0001|198=MySecondaryOrderID_4|11=MyClOrdID_4|453=3|448=NEX_EBS|447=D|452=16|448=7PBA|447=D|452=79|448=INS9|447=D|452=1001|1=7PBA|1057=N|54=2|198=MySecondaryOrderID_4|11=MyClOrdID_4|453=4|448=LC02|447=D|452=90|802=1|523=PC47PC47|803=16|448=549300BZQ6CXNOPQ8E95|447=N|452=90|448=LC02|447=D|452=1|448=PK1|447=D|452=12|1=LC02|1057=Y|10=128|
8=FIX.4.4|9=111|35=4|34=7|43=Y|49=MyAcceptorService|52=20191016-08:00:49.884|56=MyClient1|122=20191016-08:00:49.884|36=9|123=Y|10=078|
8=FIX.4.4|9=111|35=4|34=2|43=Y|49=MyClient1|52=20191016-08:00:49.868|56=MyAcceptorService|122=20191016-08:00:49.862|36=5|123=Y|10=067|
8=FIX.4.4|9=69|35=0|34=9|49=MyAcceptorService|52=20191016-08:00:55.567|56=MyClient1|10=009|
8=FIX.4.4|9=69|35=0|34=5|49=MyClient1|52=20191016-08:00:55.569|56=MyAcceptorService|10=007|
8=FIX.4.4|9=778|35=AE|34=10|49=MyAcceptorService|52=20191016-08:00:56.332|56=MyClient1|15=USD|19=ExecRefID_5|31=1205.9|32=1000000|55=USD/KRW|60=20190820-10:07:29.129|63=M1|64=20190923|75=20190820|120=USD|150=F|167=FXNDF|460=4|541=20190919|570=N|571=FF02-10E9-0000-05-200000|1003=FF02-10E9-0000-05|1056=1205900000|1300=OC|1301=FXODM|1903=FF02-10E9-0000-05|1904=0|1905=Y1KZLBMHGM|1906=0|1907=1|5899=20190822|552=2|54=1|37=0C4D-D22D-0001|198=MySecondaryOrderID_5|11=MyClOrdID_5|453=4|448=UATS|447=D|452=1|802=1|523=UATS|803=1000|448=PK1|447=D|452=12|448=NEX_EBS|447=D|452=16|448=ATSI|447=D|452=1001|1=UATS|578=Manual|1057=N|54=2|198=MySecondaryOrderID_5|11=MyClOrdID_5|453=3|448=LC9N|447=D|452=90|802=1|523=LC9NLC9N|803=16|448=549300BZQ6CXNOPQ8E95|447=N|452=90|448=LC9N|447=D|452=79|1=LC9N|1057=Y|10=091|
